:100000000C94770E0C94A80E0C94A80E0C94A80EC9
:100010000C94A80E0C94A80E0C94A80E0C94A80E88
:100020000C94A80E0C94A80E0C94A80E0C94A80E78
:100030000C94A80E0C9411B70C94A80E0C94A80E56
:100040000C94A80E0C9494660C94A80E0C94A80E14
:100050000C94A80E0C94A80E0C94B0770C94E1B0FC
:100060000C94A80E0C949B1E0C94A80E0C94A80E35
:100070000C94A80E0C94A80E0C94A80E0C94A80E28
:100080000C94A80E0C94A80E0C94A80E0C94A80E18
:100090000C94A80E0C94A80E0C94A80E0C94F8AD19
:1000A0000C94A80E0C94A80E0C94A80E0C94A80EF8
:1000B0000C94A80E0C94A80E0C94A80E0C94A80EE8
:1000C0000C94A80E0C94A80E0C94A80E0C94A80ED8
:1000D0000C94A80E0C94A80E0C94A80E0C94A80EC8
:1000E0000C94A80E0A781978357844785E786D7883
:1000F00087788B7893780FB214B219B223B22DB2ED
:10010000A6B237B23FB247B251B25BB265B274B277
:100110007EB2A6B288B292B29CB2C8B2CBB2BAB228
:10012000BEB2C4B202B3CFB2D3B2D9B2DDB2E1B281
:10013000E7B2EBB2EFB202B3F5B2F9B2FDB2084AE0
:10014000D73B3BCE016E84BCBFFDC12F3D6C7431EB
:100150009ABD56833DDA3D00C77F11BED9E4BB4C42
:100160003E916BAAAABE000000803F05A84CCDB20C
:10017000D44EB93836A9020C50B9918688083CA6ED
:10018000AAAA2ABE000000803F004D383420582023
:1001900059205A20450043616E6E6F7420656E745D
:1001A0006572207375626469723A20004D323400C2
:1001B0004D3233202573006175746F25692E6700F9
:1001C0006572726F722077726974696E6720746FDE
:1001D0002066696C65004E6F74205344207072690C
:1001E0006E74696E67002F005344207072696E74DC
:1001F000696E67206279746520002E0044656C6525
:1002000074696F6E206661696C65642C2046696C48
:10021000653A200046696C652064656C65746564A8
:100220003A002E006F70656E206661696C65642C03
:100230002046696C653A200057726974696E6720C0
:10024000746F2066696C653A20002E006F70656ED1
:10025000206661696C65642C2046696C653A2000F3
:100260002E006F70656E206661696C65642C204697
:10027000696C653A200046696C652073656C65633E
:10028000746564002053697A653A200046696C659C
:10029000206F70656E65643A20002E006F70656E89
:1002A000206661696C65642C2046696C653A2000A3
:1002B0004E6F772066726573682066696C653A20B8
:1002C000004E6F7720646F696E672066696C653ACF
:1002D00020002220706F73002220706172656E749E
:1002E0003A2200535542524F5554494E45204341FE
:1002F0004C4C207461726765743A2200747279699B
:100300006E6720746F2063616C6C207375622D675B
:10031000636F64652066696C657320776974682013
:10032000746F6F206D616E79206C6576656C732ECD
:10033000204D4158206C6576656C2069733A0053F6
:10034000442063617264206F6B006F70656E526F42
:100350006F74206661696C656400766F6C756D659D
:100360002E696E6974206661696C6564005344206F
:10037000696E6974206661696C006563686F3A0034
:100380004572726F723A0048617264636F646564AB
:100390002044656661756C742053657474696E677A
:1003A00073204C6F61646564002044002049002084
:1003B00020204D3330312050005049442073657463
:1003C00074696E67733A00205A0020590020204D4E
:1003D000323036205800486F6D65206F6666736551
:1003E0007420286D6D293A00204500205A002058BD
:1003F0000020420020540020204D32303520530090
:10040000416476616E636564207661726961626CD5
:1004100065733A20533D4D696E206665656472616F
:10042000746520286D6D2F73292C20543D4D696E05
:100430002074726176656C206665656472617465AE
:1004400020286D6D2F73292C20423D6D696E696DDA
:10045000756D207365676D656E742074696D6520B8
:10046000286D73292C20583D6D6178696D756D205C
:100470005859206A65726B20286D6D2F73292C20C6
:10048000205A3D6D6178696D756D205A206A6572DC
:100490006B20286D6D2F73292C2020453D6D6178D0
:1004A000696D756D2045206A65726B20286D6D2F12
:1004B00073290020540020204D3230342053004155
:1004C0006363656C65726174696F6E3A20533D6158
:1004D0006363656C65726174696F6E2C20543D7244
:1004E00065747261637420616363656C65726174C5
:1004F000696F6E00204500205A0020590020204DD1
:100500003230312058004D6178696D756D2041633E
:1005100063656C65726174696F6E20286D6D2F73F1
:1005200032293A00204500205A0020590020204D51
:100530003230332058004D6178696D756D206665E5
:100540006564726174657320286D6D2F73293A009C
:10055000204500205A0020590020204D39322058D3
:100560000053746570732070657220756E69743AFB
:10057000006563686F3A0053544F505045442E2035
:10058000005072696E7465722073746F7070656468
:100590002064756520746F206572726F72732E20EF
:1005A00046697820746865206572726F7220616E8A
:1005B0006420757365204D39393920746F20726558
:1005C00073746172742E202854656D706572617445
:1005D0007572652069732072657365742E2053658A
:1005E0007420697420616674657220726573746129
:1005F0007274696E6729004B494C4C45442E2000AB
:100600005072696E7465722068616C7465642E2026
:100610006B696C6C28292063616C6C656421006FC8
:100620006B00526573656E643A20002200556E6B54
:100630006E6F776E20636F6D6D616E643A2022007D
:100640004368616E67652066696C616D656E7400F4
:100650005A204F6666736574203A20007A5F6D6198
:10066000783A20007A5F6D696E3A20005A204F6612
:1006700066736574005A204F6666736574206F6BED
:10068000007A5F6D61783A20007A5F6D696E3A207A
:1006900000795F6D61783A2000795F6D696E3A206C
:1006A00000785F6D61783A2000785F6D696E3A205E
:1006B00000205A3A0020593A0020436F756E74208A
:1006C000583A200020453A00205A3A0020593A0072
:1006D000583A004649524D574152455F4E414D45AB
:1006E0003A4D61726C696E2056313B2053707269CD
:1006F0006E7465722F6772626C206D6173687570BD
:1007000020666F722067656E36204649524D57410C
:1007100052455F55524C3A68747470733A2F2F6784
:1007200069746875622E636F6D2F4572696B5A61CB
:100730006C6D2F4D61726C696E2F2050524F544F6B
:10074000434F4C5F56455253494F4E3A312E30205D
:100750004D414348494E455F545950453A4D656EA9
:1007600064656C2045585452554445525F434F557B
:100770004E543A3120555549443A303030303030BB
:1007800030302D303030302D303030302D30303072
:10079000302D3030303030303030303030300A00B2
:1007A0004D656E64656C204F66662E004D656E6407
:1007B000656C2072656164792E0042656420646F07
:1007C0006E652E0020423A0020453A00543A00421D
:1007D00065642048656174696E672E0048656174C0
:1007E000696E6720646F6E652E0020573A002045C1
:1007F0003A00543A0048656174696E672E2E2E00E7
:100800002042403A0020403A00202F003A00205475
:1008100000202F0020423A00202F006F6B20543A16
:10082000002569206D696E2C2025692073656300A1
:10083000456E642066696C65206C6973740042655E
:1008400067696E2066696C65206C697374004E6F11
:10085000206D6F76652E00526573756D696E672029
:100860007072696E74005761697420666F722075CA
:100870007365722E2E2E00536C6565702E2E2E0021
:10088000256920686F757273202569206D696E7502
:1008900074657300446F6E65207072696E74696E62
:1008A000672066696C650053544F505045442E20B4
:1008B000005072696E7465722073746F7070656435
:1008C0002064756520746F206572726F72732E20BC
:1008D00046697820746865206572726F7220616E57
:1008E0006420757365204D39393920746F20726525
:1008F00073746172742E202854656D706572617412
:100900007572652069732072657365742E20536556
:1009100074206974206166746572207265737461F5
:100920007274696E6729006F6B004E6F204C696EA0
:1009300065204E756D626572207769746820636802
:1009400065636B73756D2C204C617374204C696EFC
:10095000653A20004E6F20436865636B73756D20A8
:1009600077697468206C696E65206E756D6265725A
:100970002C204C617374204C696E653A20006368CA
:1009800065636B73756D206D69736D617463682C3D
:10099000204C617374204C696E653A20004C696E7E
:1009A00065204E756D626572206973206E6F7420CC
:1009B0004C617374204C696E65204E756D62657272
:1009C0002B312C204C617374204C696E653A2000E9
:1009D0004D31313000446F6E6520736176696E670A
:1009E0002066696C652E006F6B004D323900202047
:1009F000506C616E6E65724275666665724279749E
:100A000065733A20002046726565204D656D6F72F2
:100A1000793A20004D617220313320323031350077
:100A2000436F6D70696C65643A2000286E6F6E6567
:100A30002C2064656661756C7420636F6E666967EF
:100A40002900207C20417574686F723A20004D6146
:100A50007220313320323031352031303A30343A5F
:100A6000343500204C617374205570646174656482
:100A70003A2000312E302E30004D61726C696E00CC
:100A800020536F66747761726520526573657400D8
:100A9000205761746368646F6720526573657400E2
:100AA0002042726F776E206F757420526573657483
:100AB000002045787465726E616C205265736574B0
:100AC00000506F7765725570007374617274002204
:100AD00000656E717565696E672022002200656E83
:100AE000717565696E67202200FFFFFF0000A0405E
:100AF0000000A040000000400000484300004843C0
:100B000000005C4300000000000000000000000046
:100B1000000048430000484300005C430000000020
:100B200000000000000000006563686F3A00457235
:100B3000726F723A0020746F6F206C6F6E67206561
:100B40007874727573696F6E2070726576656E74F5
:100B500065640020636F6C642065787472757369D6
:100B60006F6E2070726576656E746564006563688B
:100B70006F3A007C3C3E5E2B3D3F2F5B5D3B2C2A59
:100B8000225C00656E6473746F7073206869743AD8
:100B9000205A00205A3A00656E6473746F70732097
:100BA0006869743A20590020593A00656E6473747C
:100BB0006F7073206869743A20580020583A0065B5
:100BC0006E6473746F7073206869743A200024F443
:100BD000D43050C38E20C2A24017828B7011127A7B
:100BE000910D816CD90AA861E108C7586607615167
:100BF00043061E4B5D05C145A7041A411104093D7A
:100C00009803713931034036DB0265339102D430E9
:100C10005402802E1D02632CEE01752AC501B028F6
:100C2000A001102781018F2564012B244B01E022B4
:100C30003401AC211F018D200D01801FFC00841E9A
:100C4000ED00971DDF00B81CD200E61BC600201B7C
:100C5000BC00641AB200B219A8000A19A0006A18F0
:100C60009900D117910040178B00B51684003116FA
:100C70007E00B31579003A157300C7146F0058143D
:100C80006A00EE1366008813630025135E00C71226
:100C90005B006C12570015125400C1115100701105
:100CA0004F0021114B00D61049008D10470046100F
:100CB000440002104200C00F4000800F3E00420F6F
:100CC0003C00060F3B00CB0E3800930E37005C0E45
:100CD0003500270E3400F30D3200C10D3100900DA8
:100CE0003000600D2E00320D2D00050D2C00D90CAA
:100CF0002B00AE0C2900850C29005C0C2700350C5C
:100D000027000E0C2600E80B2400C40B2400A00BC7
:100D100023007D0B23005A0B2100390B2100180BF7
:100D20002000F80A1F00D90A1E00BB0A1E009D0AF7
:100D30001D00800A1D00630A1C00470A1B002C0AC4
:100D40001B00110A1A00F7091A00DD091900C4096D
:100D50001900AB091900920917007B0918006309F3
:100D600017004C09160036091600200916000A095A
:100D70001500F5081500E0081400CC081400B808A8
:100D80001400A4081400900813007D0812006B08DA
:100D900013005808120046081200340811002308F6
:100DA00011001208110001081100F0071000E007FF
:100DB0001000D0071000C0071000B0070F00A107F7
:100DC000100091070E0083070F0074070F006507DE
:100DD0000E0057070E0049070E003B070D002E07B7
:100DE0000E0020070D0013070D0006070D00F90681
:100DF0000C00ED060D00E0060C00D4060C00C80641
:100E00000C00BC060C00B0060C00A4060B009906F2
:100E10000C008D060B0082060B0077060B006C069B
:100E20000B0061060A0057060B004C060A0042063A
:100E30000A0038060A002E060A0024060A001A06CE
:100E40000A001006090007060A00FD050900F4055E
:100E50000900EB050900E2050900D9050900D005E4
:100E60000900C7050900BE050900B5050800AD0564
:100E70000800A50509009C050800940508008C05DC
:100E80000800840508007C050800740508006C054E
:100E90000700650508005D050700560508004E05BA
:100EA0000700470507004005080038050700310521
:100EB00007002A050700230507001C050600160584
:100EC00007000F0507000805060002050700FB04E0
:100ED0000600F5040700EE040600E8040600E2043C
:100EE0000700DB040600D5040600CF040600C90491
:100EF0000600C3040600BD040600B7040600B104E2
:100F00000500AC040600A6040600A00405009B042E
:100F1000060095040500900406008A040500850477
:100F20000500800406007A040500750405007004BD
:100F300005006B04050066040500610405005C04FF
:100F4000050057040500520405004D04050048043F
:100F50000500430405003E0404003A04050035047E
:100F60000500300404002C040500270404002304B9
:100F700005001E0404001A040400160405001104F0
:100F800004000D0404000904050004040400000426
:100F90000400FC030400F8030400F4030400F0035D
:100FA0000400EC030400E8030400E4030400E0038D
:100FB0000400DC030400D8030400D4030400D003BD
:100FC0000400CC030400C8030300C503030024F499
:100FD00004D9201BC40C5C0E9804C4095F02650789
:100FE0007101F405F900FB04B30048048700C10354
:100FF00069005803550003034500BE023A0084020D
:10100000310053022A002902250004022000E401D5
:101010001C00C8011900AF011700980114008401D9
:101020001300710110006101100051010E00430115
:101030000D0036010B002B010B0020010B001501E8
:1010400009000C01090003010800FB000800F3007F
:101050000800EB000700E4000600DE000600D800F0
:101060000600D2000600CC000500C7000500C20043
:101070000500BD000400B9000400B5000400B10083
:101080000400AD000400A9000400A5000300A200B4
:1010900003009F0004009B000300980003009500DC
:1010A000020093000300900003008D0002008B00FB
:1010B0000300880002008600020084000300810013
:1010C00002007F0002007D0002007B000200790028
:1010D0000200770001007600020074000200720036
:1010E0000100710002006F0002006D0001006C0041
:1010F00002006A000100690002006700010066004A
:10110000010065000100640002006200010061004E
:101110000100600001005F0002005D0001005C0052
:1011200001005B0001005A00010059000100580055
:101130000100570001005600010055000100540055
:101140000100530000005300010052000100510053
:101150000100500001004F0001004E0000004E0051
:1011600001004D0001004C0001004B0000004B004D
:1011700001004A0001004900010048000000480049
:101180000100470001004600000046000100450044
:10119000000045000100440001004300000043003E
:1011A0000100420000004200010041000000410037
:1011B0000100400001003F0000003F0001003E0030
:1011C00000003E0001003D0000003D0001003C0029
:1011D00000003C0000003C0001003B0000003B0020
:1011E00001003A0000003A00010039000000390017
:1011F000010038000000380000003800010037000E
:101200000000370001003600000036000000360004
:1012100001003500000035000000350001003400F9
:1012200000003400000034000100330000003300EF
:1012300000003300010032000000320000003200E4
:1012400001003100000031000000310001003000D9
:10125000000030000000300001002F0000002F00CF
:1012600000002F0000002F0001002E0000002E00C3
:1012700000002E0001002D0000002D0000002D00B8
:1012800000002D0001002C0000002C0000002C00AC
:1012900000002C0001002B0000002B0000002B00A0
:1012A00000002B0001002A0000002A0000002A0094
:1012B00000002A0001002900000029000000290088
:1012C000000029000000290001002800000028007B
:1012D000000028000000280000002800010027006E
:1012E0000000270000002700000027000000270062
:1012F0000100260000002600000026000000260055
:101300000000260001002500000025000000250047
:101310000000250000002500000025000100240039
:10132000000024000000240000002400000024002D
:101330000100230000002300000023000000230020
:101340000000230000002300000023000100220011
:101350000000220000002200000022000000220005
:1013600000002200010021000000210000002100F7
:1013700000002100000021000000210000002100E9
:1013800001002000000020000000200000002000DC
:1013900000002000000020000000200000002000CD
:1013A00001001F0000001F0000001F0000001F00C0
:1013B00000001F0000001F0000001F0001001E00B1
:1013C00000001E0000001E0000001E0000006563FB
:1013D000686F3A004572723A204D415854454D505D
:1013E000204245440054656D706572617475726584
:1013F0002068656174656420626564207377697430
:1014000063686564206F66662E204D415854454DD3
:1014100050207472696767657265642021210045F8
:1014200072723A204D494E54454D50003A2045784D
:10143000747275646572207377697463686564207B
:101440006F66662E204D494E54454D50207472698A
:101450006767657265642021004572723A204D41CC
:101460005854454D50003A20457874727564657241
:10147000207377697463686564206F66662E204DFB
:10148000415854454D5020747269676765726564B0
:10149000202100202D20496E76616C6964206578DA
:1014A000747275646572206E756D626572202100BC
:1014B000504944204175746F74756E652066696E7D
:1014C0006973686564212050757420746865206CA8
:1014D000617374204B702C204B6920616E64204B2B
:1014E0006420636F6E7374616E74732066726F6DC7
:1014F0002061626F766520696E746F20436F6E663F
:10150000696775726174696F6E2E68005049442076
:101510004175746F74756E65206661696C656421D0
:101520002074696D656F75740020403A006F6B2000
:10153000543A006F6B20423A005049442041757480
:101540006F74756E65206661696C656421205465F1
:101550006D706572617475726520746F6F20686953
:10156000676800204B643A2000204B693A20002035
:101570004B703A200020436C6173736963205049BB
:101580004420002054753A2000204B753A2000205A
:101590006D61783A2000206D696E3A200020643A2F
:1015A000200020626961733A20004572726F723ABE
:1015B0000070012C0190012701B0012201C0011D22
:1015C00001F00118011002130130020E016002093E
:1015D0000190020401C002FF000003FA004003F57D
:1015E000008003F000D003EB002004E6007004E16B
:1015F00000E004DC004005D700C005D2004006CD65
:1016000000D006C8008007C3003008BE00F008B94B
:1016100000C009B400B00AAF00B00BAA00D00CA5FE
:1016200000000EA000500F9B00C0109600501291B9
:101630000000148C00C0158700B0178200B0197D1F
:1016400000D01B7800001E730040206E00902269BD
:1016500000F024640040275F0090295A00E02B55D9
:1016600000102E500020304B0010324600E0334175
:101670000090353C001037370070383200A0392D0B
:1016800000B03A2800A03B2300603C1E00103D192A
:1016900000903D1400103E0F00703E0A00C03E0551
:1016A00000003F00002D2D3A2D2D002D2D2D005333
:1016B00044002059000120000120004D3630300048
:1016C0004368616E67652066696C616D656E740064
:1016D000466C6F77203000466C6F77203000466C88
:1016E0006F7700466C6F770046616E20737065659A
:1016F000640046616E207370656564004265640035
:10170000426564004E6F7A7A6C65004E6F7A7A6C2F
:1017100065005370656564005370656564004D61D4
:10172000696E005072656865617420504C412042BA
:101730006564005072656865617420504C412031C9
:101740000050726570617265005072656865617401
:10175000204142532042656400507265686561749F
:10176000204142532031005072657061726500580B
:101770000059005A004578747275646572004578A6
:10178000747275646572004D6F7665205A004D6FF6
:1017900076652059004D6F76652058004D6F76654F
:1017A0002061786973004D6F766520302E316D6D44
:1017B000004D6F766520316D6D004D6F766520317F
:1017C000306D6D0050726570617265004D6F7665A9
:1017D0002061786973004D3830005377697463680D
:1017E00020706F776572206F6E004D38310053772F
:1017F0006974636820706F776572206F6666004356
:101800006F6F6C646F776E005072656865617420ED
:10181000414253005072656865617420504C41002C
:10182000473238004175746F20686F6D65004D3820
:10183000340044697361626C65207374657070650F
:101840007273004D61696E00426564004265640018
:101850004E6F7A7A6C65004E6F7A7A6C65004661DD
:101860006E2073706565640046616E2073706565F7
:10187000640054656D7065726174757265004265CF
:101880006400426564004E6F7A7A6C65004E6F7A30
:101890007A6C650046616E20737065656400466110
:1018A0006E2073706565640054656D706572617457
:1018B00075726500507265686561742041425320FD
:1018C000636F6E66005072656865617420504C41AC
:1018D00020636F6E66005049442D43005049442DEB
:1018E00043005049442D44005049442D4400504980
:1018F000442D49005049442D49005049442D500081
:101900005049442D5000200220466163740020029B
:101910002046616374002002204D6178002002207F
:101920004D6178002002204D696E002002204D6933
:101930006E004F6666004F6E20004F6666004F6E69
:1019400020004175746F74656D700046616E207380
:10195000706565640046616E207370656564004261
:10196000656400426564004E6F7A7A6C65004E6F64
:101970007A7A6C6500436F6E74726F6C0045737495
:101980006570732F6D6D004573746570732F6D6D89
:10199000005A73746570732F6D6D005A737465709F
:1019A000732F6D6D005973746570732F6D6D0059D1
:1019B00073746570732F6D6D005873746570732F39
:1019C0006D6D005873746570732F6D6D00412D72CD
:1019D00065747261637400412D7265747261637421
:1019E00000416D6178206500416D6178206500419E
:1019F0006D6178207A00416D6178207A00416D61D7
:101A000078207900416D6178207900416D617820FE
:101A10007800416D61782078005654726176206DAF
:101A2000696E005654726176206D696E00566D695C
:101A30006E00566D696E00566D6178206500566DBA
:101A40006178206500566D6178207A00566D617866
:101A5000207A00566D6178207900566D6178207982
:101A600000566D6178207800566D617820780056B8
:101A7000652D6A65726B0056652D6A65726B00563E
:101A80007A2D6A65726B00567A2D6A65726B005604
:101A900078792D6A65726B005678792D6A65726B5C
:101AA00000416363656C00416363656C00436F6E66
:101AB00074726F6C00526573746F72652066616931
:101AC0006C73616665004D6F74696F6E0054656D6F
:101AD0007065726174757265004D61696E004D3894
:101AE0003420582059205A2045004D3234004D32C0
:101AF0003320257300052E2E00045265667265732F
:101B000068004D61696E004D323100496E69742E76
:101B10002053442063617264004E6F20534420635D
:101B2000617264004D3231004368616E6765205315
:101B3000442063617264005072696E742066726F33
:101B40006D2053440053746F70207072696E74007E
:101B5000526573756D65207072696E7400506175A1
:101B60007365207072696E7400436F6E74726F6C6F
:101B700000507265706172650054756E6500496E43
:101B8000666F2073637265656E0000000A0B0209C0
:101B90000C0D0E0807030401000000000000000007
:101BA0000000000000000000000000000000000035
:101BB00000000000000012111000000000000000F2
:101BC0000000000000000000000000000000000015
:101BD000010210202008081020401020408002013F
:101BE0000201080402010102040810204080804024
:101BF0002010080402018004020180402010080423
:101C000002010804020101020408102040800102C0
:101C10000408102040800505050507050808080888
:101C2000020202020A0A0808040404040101010174
:101C3000010101010303030303030303040707076F
:101C40000C0C0C0C0C0C0C0C020202020606060614
:101C5000060606060B0B0B0B0B0B0B0B00002000F4
:101C60002300260029002C002F0032000001000074
:101C700003010601090100002200250028002B00B5
:101C80002E003100340002010000050108010B01A3
:101C900000002100240027002A002D00300033001E
:101CA00001010000040107010A01024E414E494EA4
:101CB000495459494E46CDCCCC3D0AD7233C17B7A1
:101CC000D13877CC2B329595E6241FB14F0A00000E
:101CD00020410000C84200401C4620BCBE4CCA1B2C
:101CE0000E5AAEC59D744543C49DCCAD49431124E5
:101CF0001FBECFEFD1E2DEBFCDBF00E00CBF14E0CE
:101D0000A0E0B2E0E8E5F5E801E00BBF02C0079013
:101D10000D92AE39B107D9F723E1AEE9B4E001C0C5
:101D20001D92AE31B207E1F71CE1CCEEDCE100E040
:101D300006C022970109FE010BBF0E9470BCC63E7F
:101D4000D10780E00807A9F70E949AB30C949BC2C0
:101D50000C940000FC01148217821382128281E32A
:101D600094E091838083089521E334E0FC01318382
:101D700020832781222319F004960C94C55C0895D2
:101D8000CF92DF92EF92FF920F931F93CF93DF9347
:101D9000EC018F96DFDFCE01805B9F4FDBDF7E01A2
:101DA0002FE6E20EF11C87016E013BE5C31A3EEF00
:101DB000D30AC801CFDF015E1F4F0C151D05C9F7FF
:101DC000FE01E955FE4F89E1818314823596178A19
:101DD000CE0186539E4FBEDFFE01E558FD4F1082B7
:101DE000118212821382389610821182128213821B
:101DF0001A821B82188219826E0181E8C81A8DEF3F
:101E0000D80AF6011082118212821382F80111821F
:101E10001082FE01E751FE4F108286E391E0F70148
:101E20009C01119221503040E1F7FE01E957FD4F2E
:101E300081E080831EA61DA60E942BB168577C4EB0
:101E40008F4F9F4FF6016083718382839383DF916D
:101E5000CF911F910F91FF90EF90DF90CF90089559
:101E6000FC0120E03EE2DB014C91403241F02830A1
:101E700011F430833196DB014C91408331962F5F12
:101E80006F5F7F4F2B3079F7108208953F924F920A
:101E90005F926F927F928F929F92AF92BF92CF92FA
:101EA000DF92EF92FF920F931F93CF93DF93CDB703
:101EB000DEB7C758D1090FB6F894DEBF0FBECDBF4D
:101EC0008C016B017A01312C84E0E80EF11C2801B1
:101ED000E1E14E0E511C5801F8E7AF1AFDEFBF0AC1
:101EE000480186E7881A8DEF980A80E4682E712CE5
:101EF0006C0E7D1EE4E06E0E711CA201BE016F5FD0
:101F00007F4FC7010E942F5B18160CF021C12C8552
:101F1000322F3871303109F09CC0F50180819181F8
:101F20000197029708F495C0BE016F5F7F4FCE0105
:101F300087589F4F95DFA0961FAEA097F60180812E
:101F4000811107C06BEE72E0CE01815A9F4F0E9453
:101F500093BFB601CE01815A9F4F0E9493BFBE012D
:101F600067587F4FCE01815A9F4F0E9493BF6BEEFF
:101F700072E0CE01815A9F4F0E9493BFCE01805CD8
:101F80009F4FE8DE21E0AE0147585F4FB701C30124
:101F90000E94BC5E811139C0F50180819181892B3D
:101FA000A1F5EAE7F3E08491882341F09091C00025
:101FB00095FFFCCF8093C6003196F5CFEDEEF2E0B1
:101FC0008191882339F09091C00095FFFCCF8093D8
:101FD000C600F6CF8091C00085FFFCCF8AE08093D9
:101FE000C600FE01E758FF4F8191882339F0909198
:101FF000C00095FFFCCF8093C600F6CF8091C00053
:1020000085FFFCCF8AE08093C6008BE1FE01EC5B8C
:10201000FF4FDE01959601900D928A95E1F7249687
:102020008EAD9FAD24979CA38BA381E394E09AA3EC
:1020300089A3AE014F5D5F4FBE01615A7F4FC8015A
:1020400025DFCE01819690DECE01805C9F4F8CDE35
:1020500054CF8981882309F47BC0853E09F44DCF94
:102060008E3209F44ACF8F3509F447CFF8018189C0
:10207000882331F08E3209F440CF8F3509F43DCFFB
:1020800023FD3BCF81E0303109F080E0F80184A7E7
:10209000811108C08985873409F02FCF8A858E3752
:1020A00009F42BCF98012C5F3F4FBE016F5F7F4F2C
:1020B000C901CA57DF4F2883C658D040C957DF4FE0
:1020C0003883C758D040CCDEF50180819181CA5752
:1020D000DF4F2881C658D040C957DF4F3881C758D5
:1020E000D0400097F1F4F6018191882339F0909166
:1020F000C00095FFFCCF8093C600F6CFF901819117
:10210000882339F09091C00095FFFCCF8093C600E2
:10211000F6CF8091C00085FFFCCF8AE08093C60097
:10212000ECCE8130910539F4F401808191810196E2
:1021300091838083E2CE029709F0DFCE232D30E039
:10214000F401808191812817390711F03394D5CE9D
:10215000C957DF4F0FB6F894DEBF0FBECDBFDF917A
:10216000CF911F910F91FF90EF90DF90CF90BF9094
:10217000AF909F908F907F906F905F904F903F9027
:102180000895EF92FF920F931F93CF93DF93CDB7F4
:10219000DEB76F970FB6F894DEBF0FBECDBF8C01D0
:1021A000FC01E857FD4F118210827C0183E3E80EA9
:1021B000F11C40E050E0BA01C7010E94E25B8BE1F4
:1021C000F701DE01159601900D928A95E1F7F8016D
:1021D00081A992A99C838B8381E394E09A8389836C
:1021E000AE014F5F5F4F68E474E0C8014FDECE017F
:1021F0000196BADD6F960FB6F894DEBF0FBECDBF65
:10220000DF91CF911F910F91FF90EF9008952BE1F7
:10221000FB013496DC01149601900D922A95E1F7AA
:10222000FB0122813381FC01338322830895EF92E5
:10223000FF920F931F93CF93DF93EC011B828EA924
:10224000882321F0CE01C3960E94C55C7E0189E5FA
:10225000E81A8EEFF80A45E360E0C7010E9446578E
:1022600081111FC0EAE7F3E08491882341F0909147
:10227000C00095FFFCCF8093C6003196F5CFEDE608
:10228000F3E08491882341F09091C00095FFFCCF4A
:102290008093C6003196F5CF8091C00085FFFCCFBA
:1022A00076C08E0104551E4F41E0B701C8010E945F
:1022B000AF64811126C040E0B701C8010E94AF643D
:1022C00081111FC0E0E8F3E08491882341F09091F0
:1022D000C00095FFFCCF8093C6003196F5CFEAE5AC
:1022E000F3E08491882341F09091C00095FFFCCFEA
:1022F0008093C6003196F5CF8091C00085FFFCCF5A
:1023000046C0B801CE01C3960E94D35981111FC0A7
:10231000E0E8F3E08491882341F09091C00095FFBC
:10232000FCCF8093C6003196F5CFEAE4F3E08491C8
:10233000882341F09091C00095FFFCCF8093C600A8
:102340003196F5CF8091C00085FFFCCF20C081E0A1
:102350008B83EAE7F3E08491882341F09091C000F9
:1023600095FFFCCF8093C6003196F5CFEFE3F3E005
:102370008491882341F09091C00095FFFCCF809319
:10238000C6003196F5CF8091C00085FFFCCF8AE072
:102390008093C6008E01015D1F4FB801CE01805BA6
:1023A0009F4F35DFC25BDF4F19830883DF91CF91E9
:1023B0001F910F91FF90EF900895FC0112821382FC
:1023C0000895FC012381222311F021E02283089546
:1023D000FC012281211112820895AF92BF92CF9207
:1023E000DF92EF92FF920F931F93CF93DF931F9291
:1023F000CDB7DEB78C018FE2FB0181935F01D12C59
:1024000041E07801FBE5EF1AFEEFFF0A9FE1C92EDC
:102410002D2D30E0F7018081918128173907D8F4FC
:10242000C29EC001C39E900D11248D589F4FB501CF
:10243000800F911F49830E947A59C50149815C012F
:102440000196F5012081222321F04D3810F44F5FD1
:10245000F6CFD394DDCF47FD11C0B501C80182533B
:102460009E4F0F90DF91CF911F910F91FF90EF90B2
:10247000DF90CF90BF90AF900C947A59F501108205
:102480000F90DF91CF911F910F91FF90EF90DF9010
:10249000CF90BF90AF9008952F923F924F925F924E
:1024A0006F927F928F929F92AF92BF92CF92DF9264
:1024B000EF92FF920F931F93CF93DF93CDB7DEB7C9
:1024C000AC970FB6F894DEBF0FBECDBF8C016B0189
:1024D000342EFC018381882309F4D3C2EF52FE4FCE
:1024E0008081882309F4F8C02111C4C07801F7E184
:1024F000EF1AFEEFFF0AF7018081882361F1E0E81F
:10250000F3E08491882341F09091C00095FFFCCFC7
:102510008093C6003196F5CFECEFF2E084918823EA
:1025200041F09091C00095FFFCCF8093C60031969A
:10253000F5CF4AE050E061E070E08EE994E00E945F
:10254000E81F8091C00085FFFCCF8AE08093C60021
:102550000E94182896C2EAE7F3E08491882341F0AC
:102560009091C00095FFFCCF8093C6003196F5CFC7
:10257000E3EEF2E08491882341F09091C00095FF52
:10258000FCCF8093C6003196F5CFF6018191882368
:1025900039F09091C00095FFFCCF8093C600F6CF34
:1025A000E8EDF2E08491882341F09091C00095FF1E
:1025B000FCCF8093C6003196F5CFF70180813DE8CE
:1025C000B32EB801B89E600D711D112462517E4F6B
:1025D000C80103DFF7018081F801B89EE00DF11D0D
:1025E0001124E251FE4F8191882339F09091C0006F
:1025F00095FFFCCF8093C600F6CFE2EDF2E0849128
:10260000882341F09091C00095FFFCCF8093C600D5
:102610003196F5CF5801FDE7AF1AFDEFBF0AF5017E
:1026200040815181628173812AE030E08EE994E03B
:102630000E9414208091C00085FFFCCF8AE0809327
:10264000C600F7012081F80184E0289FE00DF11D0C
:102650001124AF0146515E4FF50180819181A28125
:10266000B381FA0180839183A283B3832F5FF70143
:1026700020832CC0EAE7F3E08491882341F0909115
:10268000C00095FFFCCF8093C6003196F5CFE1ECFA
:10269000F2E08491882341F09091C00095FFFCCF37
:1026A0008093C6003196F5CFF6018191882339F0E9
:1026B0009091C00095FFFCCF8093C600F6CF80912B
:1026C000C00085FFFCCF8AE08093C600C80182531A
:1026D0009E4F0E94C55C30C0F801E751FE4F10824A
:1026E000EAE7F3E08491882341F09091C00095FFE0
:1026F000FCCF8093C6003196F5CFE0EBF2E08491F9
:10270000882341F09091C00095FFFCCF8093C600D4
:102710003196F5CFF6018191882339F09091C00070
:1027200095FFFCCF8093C600F6CF8091C00085FF57
:10273000FCCF8AE08093C600F8011282CE01019698
:102740005C0108DB28019EE4490E511CC8018F96EC
:10275000F20191838083F60180818F3209F084C079
:102760006FE270E0C6010E949EBF01967C012AE0E4
:10277000222EE114F10409F47DC06FE270E0C7017C
:102780000E949EBF4C01009709F475C0E816F90637
:1027900008F071C03C016E187F08A301B701CE019B
:1027A00080960E94C7BFE0E2F0E0EC0FFD1FE60D4F
:1027B000F71D1082FE01B0968191882339F0909127
:1027C000C00095FFFCCF8093C600F6CF8091C0007B
:1027D00085FFFCCF2092C600F201608171816115F6
:1027E000710519F06C5F7F4F02C060E070E021E07E
:1027F000AE01405E5F4FCE0105960E94BC5E811126
:102800002BC0ECE9F2E08491882341F09091C00064
:1028100095FFFCCF8093C6003196F5CFFE01B096B0
:102820008191882339F09091C00095FFFCCF80936F
:10283000C600F6CFEAE9F2E08491882341F0909156
:10284000C00095FFFCCF8093C6003196F5CF8091F4
:10285000C00085FFFCCFEAC0F201B182A082740102
:10286000FFEFEF1AFF0A85CFC801805B9F4FF2018F
:10287000918380837601C80182539E4F4C01F201FF
:1028800060817181332009F499C06115710519F0D7
:102890006C5F7F4F02C060E070E021E0A701C401DF
:1028A0000E94BC5E882309F45FC0F401818992898B
:1028B000A389B489F801E558FD4F80839183A283F1
:1028C000B383ECE8F2E08491D801A558BD4F88238A
:1028D00049F09091C00095FFFCCF8093C6003196DF
:1028E0008491F5CFF7018191882339F09091C00050
:1028F00095FFFCCF8093C600F6CFE4E8F2E0849128
:10290000882341F09091C00095FFFCCF8093C600D2
:102910003196F5CF4D915D916D917C912AE030E03B
:102920008EE994E00E9414208091C00085FFFCCFC6
:102930008AE08093C600F801ED57FD4F10821182A6
:1029400012821382E6E7F2E08491882341F09091AD
:10295000C00095FFFCCF8093C6003196F5CF8091E3
:10296000C00085FFFCCF85C0E2E6F2E084918823B9
:1029700041F09091C00095FFFCCF8093C600319646
:10298000F5CFF7018191882339F09091C00095FF30
:10299000FCCF8093C600F6CFE0E6F2E08491882376
:1029A00041F09091C00095FFFCCF8093C600319616
:1029B000F5CF8091C00085FFFCCF38C0611571054F
:1029C00019F06C5F7F4F02C060E070E026E5A70160
:1029D000C4010E94BC5E81112DC0ECE4F2E0849140
:1029E000882341F09091C00095FFFCCF8093C600F2
:1029F0003196F5CFF7018191882339F09091C0008D
:102A000095FFFCCF8093C600F6CFEAE4F2E0849114
:102A1000882341F09091C00095FFFCCF8093C600C1
:102A20003196F5CF8091C00085FFFCCF8AE080937E
:102A3000C60025C081E0F8018083E8E3F2E08491DC
:102A4000882341F09091C00095FFFCCF8093C60091
:102A50003196F5CFF6018191882339F09091C0002D
:102A600095FFFCCF8093C600F6CF8091C00085FF14
:102A7000FCCF8AE08093C600C7010E94F48CC50198
:102A800073D9AC960FB6F894DEBF0FBECDBFDF9101
:102A9000CF911F910F91FF90EF90DF90CF90BF905B
:102AA000AF909F908F907F906F905F904F903F90EE
:102AB0002F90089521E0FC01218340E0EDCC3F926E
:102AC0004F925F926F927F928F929F92AF92BF923E
:102AD000CF92DF92EF92FF920F931F93CF93DF93EA
:102AE000CDB7DEB7AC970FB6F894DEBF0FBECDBF43
:102AF0007C015B01FC018381882309F407C1C701C4
:102B000082539E4F0E94C55CF7011282CE0101964E
:102B10006C0120D927019EE4490E511CC7018F96F4
:102B2000F20191838083F50180818F3209F084C0A6
:102B30006FE270E0C5010E949EBF8C010F5F1F4FC6
:102B40004AE0342E0115110509F47CC06FE270E0F3
:102B5000C8010E949EBF4C01009709F474C0081779
:102B6000190708F070C03C01601A710AA301B8018E
:102B7000CE0180960E94C7BFE0E2F0E0EC0FFD1F9F
:102B8000E60DF71D1082FE01B0968191882339F081
:102B90009091C00095FFFCCF8093C600F6CF809146
:102BA000C00085FFFCCF3092C600F20160817181C8
:102BB0006115710519F06C5F7F4F02C060E070E035
:102BC00021E0AE01405E5F4FCE0105960E94BC5EE3
:102BD00081112BC0E4E2F2E08491882341F09091CE
:102BE000C00095FFFCCF8093C6003196F5CFFE0163
:102BF000B0968191882339F09091C00095FFFCCF69
:102C00008093C600F6CFE2E2F2E08491882341F09F
:102C10009091C00095FFFCCF8093C6003196F5CF10
:102C20008091C00085FFFCCF6CC0F201D182C082D0
:102C300084010F5F1F4F86CFC701805B9F4FF2015A
:102C4000918380838501F20180819181009711F049
:102C5000049602C080E090E0B8010E94925F882351
:102C600039F1E4E1F2E08491882341F09091C000D1
:102C700095FFFCCF8093C6003196F5CFF801819186
:102C8000882339F09091C00095FFFCCF8093C60057
:102C9000F6CF8091C00085FFFCCF8AE08093C6000C
:102CA000F701ED57FD4F10821182128213822CC062
:102CB000ECEFF1E08491882341F09091C00095FF02
:102CC000FCCF8093C6003196F5CFF801819188231F
:102CD00039F09091C00095FFFCCF8093C600F6CFED
:102CE000EAEFF1E08491882341F09091C00095FFD4
:102CF000FCCF8093C6003196F5CF8091C00085FF50
:102D0000FCCF8AE08093C600C6012ED8AC960FB6E1
:102D1000F894DEBF0FBECDBFDF91CF911F910F9111
:102D2000FF90EF90DF90CF90BF90AF909F908F90EB
:102D30007F906F905F904F903F900895CF93DF9377
:102D4000EC018B818823C1F1E8EEF1E084918823C6
:102D500041F09091C00095FFFCCF8093C600319662
:102D6000F5CFFE01ED57FD4F4081518162817381A6
:102D70002AE030E08EE994E00E941420E6EEF1E0D3
:102D80008491882341F09091C00095FFFCCF8093FF
:102D9000C6003196F5CFC558DD4F488159816A810B
:102DA0007B812AE030E08EE994E00E94142080913B
:102DB000C00085FFFCCF11C0E6EDF1E084918823CF
:102DC00041F09091C00095FFFCCF8093C6003196F2
:102DD000F5CF8091C00085FFFCCF8AE08093C600CC
:102DE000DF91CF910895AF92BF92CF92DF92EF9291
:102DF000FF920F931F93CF93DF935C01EB01FB01D5
:102E000001900020E9F78F0101501109061B170BF3
:102E10006C01F2E3CF1AFEEFDF0AF60110826EE4D6
:102E200070E0CE010E949EBF7C01009729F4F8015A
:102E30003197EC0FFD1F0DC060E270E00E949EBF55
:102E4000EC0121966AE270E0C7010E949EBFFC017E
:102E500031978DE081838AE082831382BE01C501B0
:102E600086539E4F0E945861F6018081882309F1A4
:102E7000E0E8F3E08491882341F09091C00095FF51
:102E8000FCCF8093C6003196F5CFE0ECF1E0849161
:102E9000882341F09091C00095FFFCCF8093C6003D
:102EA0003196F5CF8091C00085FFFCCF8AE08093FA
:102EB000C600DF91CF911F910F91FF90EF90DF90AF
:102EC000CF90BF90AF9008952F923F924F925F9214
:102ED0006F927F928F929F92AF92BF92CF92DF922A
:102EE000EF92FF920F931F93CF93DF93CDB7DEB78F
:102EF000CC55D1090FB6F894DEBF0FBECDBF8C0103
:102F000089579D4F5C01662339F0F5011082F80165
:102F1000838181111DC015C0FC018081882309F4C3
:102F2000ADC0F801E158FD4FC080D180E280F38050
:102F30000E942BB1C616D706E806F90608F49EC013
:102F4000E4CFC80174D9F8018381882309F496C0BD
:102F5000F80186A58F9385A58F9387EB91E09F93CA
:102F60008F937E01FFE3EF0EF11CFF92EF920E9420
:102F7000D6BF0F900F900F900F900F900F90B12C25
:102F8000F70101900020E9F73197EE19FF09BE160D
:102F900084F46701CB0CD11CB7FCDA94F601808174
:102FA000992787FD90950E9424BFF6018083B394F2
:102FB000E7CF4801F3E38F0E911C40E050E0BA01E7
:102FC000C4010E94E25B512CCE0101966C0150EBD2
:102FD000652E51E0752E5E0191E2A90EB11C40E014
:102FE00050E0B601C4010E942F5B1816DCF5412C9D
:102FF000F60101900020E9F73197EC19FD094E1612
:1030000074F41601240C311C47FC3A94F1018081C0
:1030100090E00E9424BFF10180834394E9CF8A8528
:103020008E37E9F245E050E0B701C6010E94B9BF12
:10303000892BA9F6FF92EF927F926F92BF92AF9287
:103040000E94D6BFC5010E9472228CEA91E00E94C4
:10305000E5220F900F900F900F900F900F90552436
:103060005394BDCF511004C08FEF9FEFF80104C0FF
:10307000F80185A596A5019696A785A7C45ADF4FA6
:103080000FB6F894DEBF0FBECDBFDF91CF911F9179
:103090000F91FF90EF90DF90CF90BF90AF909F90F7
:1030A0008F907F906F905F904F903F902F900895FA
:1030B0000F931F93CF93DF93EC018C0102531E4FAC
:1030C000C8010E947B5CC8010E94C55C18821982FD
:1030D000DF91CF911F910F910895EF92FF920F937F
:1030E0001F93CF93DF93CDB7DEB76F970FB6F894EA
:1030F000DEBF0FBECDBF8C017C018EE4E80EF11C5B
:10310000C801805B9F4FF70191838083E65CFD4F90
:1031100022E030E031832083329670E07183608357
:1031200040E050E0BA0104960E94E25BF701808122
:1031300091812BE1FC013496DE01159601900D92F0
:103140002A95E1F7FC01828193819C838B8381E343
:1031500094E09A838983AE014F5F5F4F68E474E027
:10316000C8010E94460FCE0101960E94B40E6F96D0
:103170000FB6F894DEBF0FBECDBFDF91CF911F9188
:103180000F91FF90EF900895CF92DF92EF92FF9210
:103190000F931F93CF93DF93CDB7DEB76F970FB623
:1031A000F894DEBF0FBECDBF8C016C012EE4C20EC1
:1031B000D11C805B9F4FF60191838083E65CFD4FBD
:1031C00021E030E0318320837801F6E7EF1AFDEF4C
:1031D000FF0AF7011182108240E050E0BA01049624
:1031E0000E94E25BF601808191812BE1FC01349623
:1031F000DE01159601900D922A95E1F7FC0182817E
:1032000093819C838B8381E394E09A838983AE01CD
:103210004F5F5F4F68E474E0C8010E94460FCE0123
:1032200001960E94B40EF701808191816F960FB6CE
:10323000F894DEBF0FBECDBFDF91CF911F910F91EC
:10324000FF90EF90DF90CF900895AF92BF92CF9212
:10325000DF92EF92FF920F931F93CF93DF93CDB73F
:10326000DEB76F970FB6F894DEBF0FBECDBF8C01EF
:103270007B01CE0101960E94AA0EF801E95AFF4F88
:1032800080816801811104C02FE2C20ED11C03C0ED
:1032900080E5C80ED11C21E0A701B6016C5F7F4F0D
:1032A000CE0105960E94BC5E81112DC0EAE7F3E0D5
:1032B0008491882341F09091C00095FFFCCF8093CA
:1032C000C6003196F5CFE6E9F1E08491882341F01C
:1032D0009091C00095FFFCCF8093C6003196F5CF4A
:1032E000F7018191882339F09091C00095FFFCCFC0
:1032F0008093C600F6CF8091C00085FFFCCF8AE0A6
:103300008093C60036C0F801EB55FE4F8081918155
:103310008A30910530F59C012F5F3F4F3183208328
:103320002FE1289F7001299FF00C11242FE6E20E57
:10333000F11CE00EF11E5C01B701C7014F960E941F
:10334000071181E0A81AB1082FE1E21AF1088FEF06
:10335000A816B80689F7B601C80181599F4F0E9487
:103360000711BE016F5F7F4FC801805B9F4F0E94B6
:103370000711CE0101960E94B40E6F960FB6F89415
:10338000DEBF0FBECDBFDF91CF911F910F91FF9098
:10339000EF90DF90CF90BF90AF900895EF92FF92A3
:1033A0000F931F93CF93DF93EC01CB55DE4F288112
:1033B000398121153105F9F02150310939832883EC
:1033C0008C0101591F4FB801805B9F4F0E9407116C
:1033D000C80100E010E07C012FE1E20EF11C288121
:1033E00039810217130738F40F5F1F4FB7010E948E
:1033F0000711C701F0CFDF91CF911F910F91FF907F
:10340000EF900895EF92FF920F931F93CF93DF9366
:10341000EC010E94076E8E0107511E4FF80180815A
:103420009E0122533E4F79018823A1F1C9010E94D8
:10343000C55CF801808181508083BE01FDE88F9FCB
:10344000600D711D112462517E4F21E041E0CE01DB
:1034500023D8F8018081FE0124E0829FE00DF11D58
:103460001124E651FE4F4081518162817381FE013A
:10347000ED57FD4F4083518362837383C7010E94E0
:10348000E25BCE01DF91CF911F910F91FF90EF9002
:103490000C94E1110E947B6EC7010E94C55C1A82E8
:1034A0008AE891E00E94E5228091980E8823F9F045
:1034B0001092980EC091FB06D0E0CC0FDD1FCC53CC
:1034C000DE4E68817981882777FD8095982F0E944C
:1034D000EDB820913F02309140024091410250915D
:1034E00042020E944EBA181614F419821882DF9113
:1034F000CF911F910F91FF90EF900895CF93DF939D
:10350000C1E7D5E0FE018491882341F09091C0008D
:1035100095FFFCCF8093C6003196F5CFE1E6F5E04C
:103520008491882341F09091C00095FFFCCF809357
:10353000C6003196F5CF8091C00085FFFCCF8AE0B0
:103540008093C600FE018491E1E7F5E0882349F00D
:103550009091C00095FFFCCF8093C6003196849176
:10356000F5CF4091F90E5091FA0E6091FB0E7091DB
:10357000FC0E89E595E077D74091FD0E5091FE0E47
:103580006091FF0E7091000F86E595E06CD7409139
:10359000010F5091020F6091030F7091040F83E5AA
:1035A00095E061D74091050F5091060F6091070F8C
:1035B0007091080F80E595E056D78091C00085FF97
:1035C000FCCF8AE08093C600FE018491E1E7F5E03C
:1035D000882349F09091C00095FFFCCF8093C600EE
:1035E00031968491F5CFE6E3F5E08491882341F0AC
:1035F0009091C00095FFFCCF8093C6003196F5CF27
:103600008091C00085FFFCCF8AE08093C600FE0158
:103610008491E1E7F5E0882349F09091C00095FF9F
:10362000FCCF8093C60031968491F5CF4091090F6D
:1036300050910A0F60910B0F70910C0F8DE295E085
:1036400012D740910D0F50910E0F60910F0F709196
:10365000100F8AE295E007D74091110F5091120F99
:103660006091130F7091140F87E295E0FCD64091A2
:10367000150F5091160F6091170F7091180F84E27B
:1036800095E0F1D68091C00085FFFCCF8AE0809361
:10369000C600FE018491E1E7F5E0882349F09091AE
:1036A000C00095FFFCCF8093C60031968491F5CF82
:1036B000E6E0F5E08491882341F09091C00095FF09
:1036C000FCCF8093C6003196F5CF8091C00085FF76
:1036D000FCCF8AE08093C600FE018491E1E7F5E02B
:1036E000882349F09091C00095FFFCCF8093C600DD
:1036F00031968491F5CF4091E90E5091EA0E609198
:10370000EB0E7091EC0E8DEF94E0BED64091ED0E75
:103710005091EE0E6091EF0E7091F00E8AEF94E0F2
:10372000B3D64091F10E5091F20E6091F30E70916C
:10373000F40E87EF94E0A8D64091F50E5091F60E66
:103740006091F70E7091F80E84EF94E09DD6809111
:10375000C00085FFFCCF8AE08093C600FE01849103
:10376000E1E7F5E0882349F09091C00095FFFCCF98
:103770008093C60031968491F5CFEFEBF4E084910D
:10378000882341F09091C00095FFFCCF8093C60044
:103790003196F5CF8091C00085FFFCCF8AE0809301
:1037A000C600FE018491E1E7F5E0882349F090919D
:1037B000C00095FFFCCF8093C60031968491F5CF71
:1037C0004091E10E5091E20E6091E30E7091E40E93
:1037D00086EB94E048D64091DD0E5091DE0E60916C
:1037E000DF0E7091E00E83EB94E03DD68091C00037
:1037F00085FFFCCF8AE08093C600FE018491E1E75B
:10380000F5E0882349F09091C00095FFFCCF8093AC
:10381000C60031968491F5CFE0E0F4E084918823EE
:1038200041F09091C00095FFFCCF8093C600319687
:10383000F5CF8091C00085FFFCCF8AE08093C60061
:10384000FE018491E1E7F5E0882349F09091C00002
:1038500095FFFCCF8093C60031968491F5CF4091BF
:10386000E50E5091E60E6091E70E7091E80E87EF3D
:1038700093E0F9D54091CD0E5091CE0E6091CF0ED0
:103880007091D00E84EF93E0EED54091190F5091D6
:103890001A0F60911B0F70911C0F81EF93E0F4D50C
:1038A0004091D90E5091DA0E6091DB0E7091DC0ED2
:1038B0008EEE93E0D8D54091D50E5091D60E609102
:1038C000D70E7091D80E8BEE93E0CDD54091D10EEE
:1038D0005091D20E6091D30E7091D40E88EE93E089
:1038E000C2D58091C00085FFFCCF8AE08093C600DE
:1038F000FE018491E1E7F5E0882349F09091C00052
:1039000095FFFCCF8093C60031968491F5CFE6ED0C
:10391000F3E08491882341F09091C00095FFFCCFA3
:103920008093C6003196F5CF8091C00085FFFCCF13
:103930008AE08093C600FE018491E1E7F5E08823E8
:1039400049F09091C00095FFFCCF8093C60031965E
:103950008491F5CF40910F075091100760911107A6
:10396000709112078DEC93E07ED540911307509132
:10397000140760911507709116078AEC93E073D5D0
:1039800040911707509118076091190770911A0715
:1039900087EC93E068D58091C00085FFFCCF8AE07A
:1039A0008093C600FE018491E1E7F5E0882349F0A9
:1039B0009091C00095FFFCCF8093C6003196849112
:1039C000F5CFE9EBF3E08491882341F09091C000BA
:1039D00095FFFCCF8093C6003196F5CF8091C00053
:1039E00085FFFCCF8AE08093C600FE01C491E1E729
:1039F000F5E0CC2349F08091C00085FFFCCFC09357
:103A0000C6003196C491F5CF40915E0250915F029D
:103A100060916002709161028FEA93E024D5609119
:103A20005A0270915B0280915C0290915D020E944B
:103A30001679AB01BC018CEA93E015D56091560272
:103A40007091570280915802909159020E942279F8
:103A5000AB01BC0189EA93E006D58091C00085FFE7
:103A6000FCCF8AE08093C600DF91CF910895AF929A
:103A7000BF92CF92DF92EF92FF920F931F93CF935B
:103A8000DF93CDB7DEB7E0970FB6F894DEBF0FBE79
:103A9000CDBF80E1EBE7F2E0DE01919601900D925F
:103AA0008A95E1F780E1EBE8F2E0DE0151960190C2
:103AB0000D928A95E1F780E1EBE9F2E0DE011196E3
:103AC00001900D928A95E1F76E0181E2C80ED11C3A
:103AD00089EFE82E8EE0F82E8E010F5E1F4F69E011
:103AE0007FE0AE014F5F5F4F99EEA92E9EE0B92EA9
:103AF00020E030E0F60181919191A191B1916F01A7
:103B0000F70181939193A193B1937F01F801819182
:103B10009191A191B1918F01FB0181939193A19317
:103B2000B193BF01FA0181919191A191B191AF013E
:103B3000F50181939193A193B1935F012F5F3F4F63
:103B400024303105B9F60E94115680E090E8ABE3CD
:103B5000B5E48093E10E9093E20EA093E30EB09350
:103B6000E40E8093DD0E9093DE0EA093DF0EB093F3
:103B7000E00E1092E50E1092E60E1092E70E1092F3
:103B8000E80E80E29EE4A0E0B0E08093190F9093ED
:103B90001A0FA0931B0FB0931C0F1092CD0E109212
:103BA000CE0E1092CF0E1092D00E80E090E0A0EAE0
:103BB000B1E48093D90E9093DA0EA093DB0EB0930C
:103BC000DC0E8DEC9CECACECBEE38093D50E9093B8
:103BD000D60EA093D70EB093D80E80E090E0A0EA66
:103BE000B0E48093D10E9093D20EA093D30EB093F5
:103BF000D40E1092170710921807109219071092FE
:103C00001A071092130710921407109215071092BA
:103C1000160710920F0710921007109211071092BA
:103C2000120784EB90E0909324128093231286E491
:103C300090E090932212809321128FEF90E0909366
:103C4000201280931F1220EF30E030931E12209339
:103C50001D1224E630E030931C1220931B12909327
:103C60001A12809319128AE999E9A1EBB1E48093C1
:103C70005E0290935F02A0936002B093610261E7DD
:103C80007DE38AE89FE30E94107960935A02709363
:103C90005B0280935C0290935D0260E070E084EED2
:103CA00092E40E941C7960935602709357028093AD
:103CB0005802909359020E942E7080E090E0A0E894
:103CC000BFE38093520290935302A0935402B093A7
:103CD0005502E1E7F5E08491882341F09091C0001E
:103CE00095FFFCCF8093C6003196F5CFE7E8F3E06F
:103CF0008491882341F09091C00095FFFCCF809380
:103D0000C6003196F5CF8091C00085FFFCCF8AE0D8
:103D10008093C600E0960FB6F894DEBF0FBECDBF0D
:103D2000DF91CF911F910F91FF90EF90DF90CF9097
:103D3000BF90AF9008951F920F920FB60F9211246B
:103D40000BB60F922F933F934F935F936F938F9385
:103D50009F93EF93FF936091C60020911F053091D0
:103D60002005C90101968F7799274091210550912F
:103D700022058417950741F0F901E156FB4F608356
:103D80009093200580931F05FF91EF919F918F9154
:103D90006F915F914F913F912F910F900BBE0F90BC
:103DA0000FBE0F901F9018959A01AB01211581EE5F
:103DB00038074105510549F182E08093C00060E079
:103DC00079E08DE390E00E943EBC21503109410929
:103DD0005109CA01B90122E030E040E050E00E9400
:103DE0003EBC3093C5002093C4008091C100806127
:103DF0008093C1008091C10088608093C100809150
:103E0000C10080688093C10008951092C00020E135
:103E100030E0E7CF209121053091220580911F05E8
:103E2000909120058217930771F0F901E156FB4F3D
:103E300080812F5F3F4F2F773327309322052093C8
:103E4000210590E008958FEF9FEF0895809121055F
:103E5000909122059093200580931F0508954F921D
:103E60005F926F927F928F929F92AF92BF92CF920A
:103E7000DF92EF92FF920F931F93CF93DF93CDB713
:103E8000DEB7A0970FB6F894DEBF0FBECDBF5C01C2
:103E90004115510561057105E9F420E030E040E38A
:103EA00050E060E070E0A0960FB6F894DEBF0FBE61
:103EB000CDBFDF91CF911F910F91FF90EF90DF90D9
:103EC000CF90BF90AF909F908F907F906F905F90BA
:103ED0004F905BC08E010F5F1F4FC12CD12C76011C
:103EE0004801422E512C612C712C8FEFC81AD80A30
:103EF000E80AF80ACB01BA01A30192010E941CBC96
:103F0000CA01F80161938F01A901BC014115510556
:103F10006105710551F7F1E0CF1AD108E108F10808
:103F2000F401EC0DFD1D80818A3010F440E301C0E6
:103F300047E3480F552747FD5095652F752F20E023
:103F400030E0C50122D081E0C81AD108E108F108AB
:103F5000EFEFCE16DE06EE06FE0611F7A0960FB6C0
:103F6000F894DEBF0FBECDBFDF91CF911F910F91AF
:103F7000FF90EF90DF90CF90BF90AF909F908F9089
:103F80007F906F905F904F9008952115310539F41F
:103F90008091C00085FFFCCF4093C60008952A3071
:103FA000310509F41CC05BCFCF93DF93EC0120E017
:103FB00030E04DE050E060E070E0E7DF20E030E02E
:103FC0004AE050E060E070E0CE01DF91CF91DDCFBC
:103FD0009A01AB01662757FD6095762FD6CFCF9219
:103FE000DF92EF92FF92CF93DF93EC016A017B01A6
:103FF00077FF0FC020E030E04DE250E060E070E07D
:10400000C4DFF094E094D094C094C11CD11CE11C96
:10401000F11C2AE0B701A601CE01DF91CF91FF90FC
:10402000EF90DF90CF901BCF2115310539F48091AF
:10403000C00085FFFCCF4093C600089510CF9A01C1
:10404000462F50E060E070E0EFCFCF93DF93EC01BC
:104050009A01AB0160E070E0E7DFCE01DF91CF9124
:10406000A3CF8F929F92AF92BF92CF92DF92EF92A7
:10407000FF921F93CF93DF93EC016A017B01122F14
:1040800020E030E0A901C701B6010E944BB887FFCC
:104090000CC020E030E04DE250E060E070E0CE0186
:1040A00074DFF7FAF094F7F8F094B12C60E070E068
:1040B00080E09FE3B11641F020E030E040E251E4BF
:1040C0000E9452B8B394F6CF9B01AC01C701B60170
:1040D0000E9472B76B017C010E94BFB84B015C016A
:1040E0000E94EBB89B01AC01C701B6010E9471B7F9
:1040F0006B017C012AE0B501A401CE01B0DE1123E1
:1041000061F0E4E8F4E08191882339F09091C000F7
:1041100095FFFCCF8093C600F6CF112319F120E064
:1041200030E040E251E4C701B6010E9420BB6B01C0
:104130007C010E94BAB84B01AA2497FCA094BA2C27
:10414000B501A401CE014BDFC501B4010E94EDB859
:104150009B01AC01C701B6010E9471B76B017C01E4
:104160001150DBCFDF91CF911F91FF90EF90DF9047
:10417000CF90BF90AF909F908F90089572CFFC0129
:10418000659175918591949108952F923F924F92E8
:104190005F926F927F928F929F92AF92BF92CF92D7
:1041A000DF92EF92FF920F931F93CF93DF9300D094
:1041B00000D0CDB7DEB71C01FC01E751F54F1491DB
:1041C0009C01220F331F220F331F3E832D83255E58
:1041D000384F4901F901108211821282138227E2BD
:1041E00037E043E257E06FE177E08BE197E00E9430
:1041F0003F558D819E818850954FC1DF6B017C01B9
:10420000612F772767FD7095872F972F0E94EDB854
:104210002B013C012D813E812851394F590120E06D
:1042200030E040EC5FE3C701B6010E9420BBA30170
:1042300092010E9420BBF501608371838283938386
:104240002D813E81295D3D4F3C832B83F9016081A7
:1042500071818281938160930B0270930C02809331
:104260000D0290930E0220E030E040E752E40E94FD
:1042700052B82BEFC22E26E0D22E7B018C0124EF08
:1042800036E040EF56E06CEE76E088EE96E00E9475
:10429000794B0E94076EF401108211821282138200
:1042A00027E237E043E257E06FE177E08BE197E008
:1042B0000E943F552D813E812451354F3A832983F9
:1042C000C9015DDF9058A30192010E9420BBF50156
:1042D000608371838283938320E030E040E752E47F
:1042E00060910B0270910C0280910D0290910E0270
:1042F0000E9452B87B018C0124EF36E040EF56E07B
:104300006CEE76E088EE96E00E94794B0E94076E94
:1043100089819A8134DF9B01AC010E9472B7A301AD
:1043200092010E9420BBF501608371838283938395
:1043300020E030E040E05FE3EB81FC81608171814F
:10434000828193810E9420BB60930B0270930C02C8
:1043500080930D0290930E0220E030E040E752E49B
:104360000E9452B87B018C0124EF36E040EF56E00A
:104370006CEE76E088EE96E00E94794B0E94076E24
:104380008D819E818C5F944FFADE0D811E81015FCD
:10439000184FF80120813181428153810E9472B708
:1043A000F40160837183828393838D819E81845E17
:1043B000944FE5DE2D813E812D5F384F7901F80164
:1043C00020813181428153810E9472B7F70160835D
:1043D0007183828393838D819E81805F944FCFDE32
:1043E0002D813E812F5E3D4F7901F8012081318181
:1043F000428153810E9472B7F70160837183828387
:104400009383F40180819181A281B381F50180833E
:104410009183A283B38310920B0210920C0210922C
:104420000D0210920E020E948466F101E050F94FD5
:1044300081E0808326960FB6F894DEBF0FBECDBF15
:10444000DF91CF911F910F91FF90EF90DF90CF9070
:10445000BF90AF909F908F907F906F905F904F90A4
:104460003F902F900895FC012491222341F0309138
:10447000C00035FFFCCF2093C6000196F4CF22E0A8
:1044800030E08EE994E07ACEFC012491222341F0C1
:104490003091C00035FFFCCF2093C6000196F4CFC9
:1044A0002AE030E08EE994E0BFCDCF93DF931F92F6
:1044B0001F92CDB7DEB780911813909119139E010A
:1044C0002F5F3F4F009719F42E51334102C0281B34
:1044D000390B3A83298389819A810F900F90DF915C
:1044E000CF91089520913D0530913E05243031054E
:1044F0000CF06AC040913F055091400560E6649F12
:104500009001659F300D1124BC01C901895B9A4F50
:104510000E94B2BFE8E2FBE08491882341F09091D1
:10452000C00095FFFCCF8093C6003196F5CFEEED2D
:10453000FAE08491882341F09091C00095FFFCCF70
:104540008093C6003196F5CF80913F05909140054C
:1045500020E6289FF001299FF00D1124E95BFA4F16
:104560008191882339F09091C00095FFFCCF809312
:10457000C600F6CFECEDFAE08491882341F09091EB
:10458000C00095FFFCCF8093C6003196F5CF809197
:10459000C00085FFFCCF8AE08093C60080913F0574
:1045A00090914005019664E070E00E9409BC9093F0
:1045B000400580933F0580913D0590913E05019611
:1045C00090933E0580933D05089520913D053091DF
:1045D0003E05243031050CF06AC040913F055091F2
:1045E000400560E6649F9001659F300D1124BC0179
:1045F000C901895B9A4F0E942CBFE8E2FBE08491DD
:10460000882341F09091C00095FFFCCF8093C600B5
:104610003196F5CFE1EDFAE08491882341F0909155
:10462000C00095FFFCCF8093C6003196F5CF8091F6
:104630003F059091400520E6289FF001299FF00D4D
:104640001124E95BFA4F8191882339F09091C000E1
:1046500095FFFCCF8093C600F6CFEFECFAE0849193
:10466000882341F09091C00095FFFCCF8093C60055
:104670003196F5CF8091C00085FFFCCF8AE0809312
:10468000C60080913F0590914005019664E070E07E
:104690000E9409BC9093400580933F0580913D05A1
:1046A00090913E05019690933E0580933D050895B7
:1046B000269A2E980895FCDF40E052EC61E070E00D
:1046C0008EE994E071DBE9ECFAE08491882341F013
:1046D0009091C00095FFFCCF8093C6003196F5CF36
:1046E0008091C00085FFFCCF8AE08093C60088E2FD
:1046F0009BE0FC012491222341F03091C00035FF62
:10470000FCCF2093C6003196F5CF24B720FF14C00C
:10471000E1ECFAE03491332341F04091C00045FFD1
:10472000FCCF3093C6003196F5CF3091C00035FFF5
:10473000FCCF3AE03093C60021FF14C0E1EBFAE071
:104740003491332341F04091C00045FFFCCF3093BA
:10475000C6003196F5CF3091C00035FFFCCF3AE06E
:104760003093C60022FF14C0E0EAFAE0349133230C
:1047700041F04091C00045FFFCCF3093C600319618
:10478000F5CF3091C00035FFFCCF3AE03093C60042
:1047900023FF14C0E0E9FAE03491332341F0409163
:1047A000C00045FFFCCF3093C6003196F5CF309165
:1047B000C00035FFFCCF3AE03093C60025FF14C09F
:1047C000E0E8FAE02491222341F03091C00035FF67
:1047D000FCCF2093C6003196F5CF2091C00025FF75
:1047E000FCCF2AE02093C60014BEE9E7FAE024914A
:1047F000222341F03091C00035FFFCCF2093C6004A
:104800003196F5CFE3E7FAE02491222341F030918D
:10481000C00035FFFCCF2093C6003196F5CF209124
:10482000C00025FFFCCF2AE02093C600FC012491A4
:10483000E8E2FBE0222349F03091C00035FFFCCFD5
:104840002093C60031962491F5CFE3E6FAE0249157
:10485000222341F03091C00035FFFCCF2093C600E9
:104860003196F5CFEEE4FAE02491222341F0309125
:10487000C00035FFFCCF2093C6003196F5CFE2E4AF
:10488000FAE02491222341F03091C00035FFFCCFA3
:104890002093C6003196F5CFEBE2FAE02491222373
:1048A00041F03091C00035FFFCCF2093C600319617
:1048B000F5CF2091C00025FFFCCF2AE02093C60051
:1048C000E0E2FAE02491222341F03091C00035FF6C
:1048D000FCCF2093C6003196F5CFE4E1FAE02491B5
:1048E000222341F03091C00035FFFCCF2093C60059
:1048F0003196F5CF2091C00025FFFCCF2AE0209310
:10490000C600FC018491E8E2FBE0882349F0909125
:10491000C00095FFFCCF8093C60031968491F5CFFF
:10492000E5E0FAE08491882341F09091C00095FF82
:10493000FCCF8093C6003196F5CFB7DD4AE050E05A
:10494000BC018EE994E044DBEEEEF9E0849188232B
:1049500041F09091C00095FFFCCF8093C600319646
:10496000F5CF4AE050E060ED74E08EE994E030DB92
:104970008091C00085FFFCCF8AE08093C600109232
:1049800043051092440510924505109246056FD8D4
:104990000E947E1A0E942A720E94134A0E94A56DEC
:1049A0000E94758DFFEF23ED80E3F15020408040A1
:1049B000E1F700C000000895809137059091380517
:1049C00060E070E001960C9483BC80913705909173
:1049D00038054AE050E060E070E001960C94EBBDD1
:1049E000682F772767FD709520914105309142052A
:1049F00040E6429FC001439F900D1124895B9A4F6E
:104A00000E949EBF909338058093370521E0892B43
:104A100009F420E0822F08950E942BB160933305A2
:104A200070933405809335059093360508950E9460
:104A30002BB16093330570933405809335059093C3
:104A40003605E0914105F0914205ED5BFA4F80811A
:104A5000811114C0EFE1F6E08491882341F0909138
:104A6000C00095FFFCCF8093C6003196F5CF8091B2
:104A7000C00085FFFCCF8AE08093C60008958EE9D0
:104A800094E0E4D9E2E2F6E08491882341F0909149
:104A9000C00095FFFCCF8093C6003196F5CF4091C2
:104AA000CC065091CD066091CE067091CF064F5F37
:104AB0005F4F6F4F7F4F2AE030E08EE994E065DA78
:104AC0008091C00085FFFCCF8AE08093C600AFCF05
:104AD0008F929F92AF92BF92CF92DF92EF92FF920E
:104AE0000F931F93CF93DF9339E2E32E34E0F32E3D
:104AF0000BE117E0C8EED6E04DE2C42E47E0D42E1D
:104B0000F70181917F016CDF882311F155DF4B01A3
:104B10005C01F6018081811103C06091C70601C06C
:104B200061E070E080E090E00E94EDB8F801208143
:104B30003181428153810E9420BB9B01AC01C501A0
:104B4000B4010E9472B7688379838A839B8309C00A
:104B5000F80180819181A281B38188839983AA839E
:104B6000BB830C5F1F4F2496FFEFCF1ADF0A8DE245
:104B7000E81684E0F80621F686E432DF8823D1F0D7
:104B80001BDF6B017C016093D8067093D90680937C
:104B9000DA069093DB0620E030E0A9010E944EBACD
:104BA000181644F4C0920B02D0920C02E0920D024F
:104BB000F0920E02DF91CF911F910F91FF90EF9035
:104BC000DF90CF90BF90AF909F908F90089580DF3F
:104BD00089E406DF882351F0EFDE6093DC067093F2
:104BE000DD068093DE069093DF0608C01092DC0697
:104BF0001092DD061092DE061092DF068AE4F0DEE7
:104C0000882351F0D9DE6093E0067093E10680932B
:104C1000E2069093E30608951092E0061092E106F2
:104C20001092E2061092E3060895CF92DF92EF927F
:104C3000FF92CF93DF93EC01C0900307D09004075D
:104C4000E0900507F0900607A70196016881798139
:104C50008A819B810E944BB887FF04C0C882D98299
:104C6000EA82FB82C0900707D0900807E09009070E
:104C7000F0900A07A70196016C817D818E819F814A
:104C80000E944BB887FF04C0CC82DD82EE82FF8297
:104C9000C0900B07D0900C07E0900D07F0900E0726
:104CA000A7019601688579858A859B850E944BB806
:104CB00087FF04C0C886D986EA86FB86C0901102A9
:104CC000D0901202E0901302F0901402A701960116
:104CD000688179818A819B810E944EBA181624F4DA
:104CE000C882D982EA82FB82C0901502D090160257
:104CF000E0901702F0901802A70196016C817D8167
:104D00008E819F810E944EBA181624F4CC82DD82D7
:104D1000EE82FF82C0901902D0901A02E0901B022E
:104D2000F0901C02A7019601688579858A859B858C
:104D30000E944EBA181624F4C886D986EA86FB86E5
:104D4000DF91CF91FF90EF90DF90CF900895CF92B9
:104D5000DF92EF92FF920F931F9388EE96E065DF4C
:104D60000E942BB160933305709334058093350511
:104D7000909336052091E8063091E9064091EA06C5
:104D80005091EB0660911B0770911C0780911D07E5
:104D900090911E070E944BB8811179C02091EC06BA
:104DA0003091ED064091EE065091EF0660911F079D
:104DB0007091200780912107909122070E944BB8A3
:104DC000811165C020E030E040E752E460910B02C1
:104DD00070910C0280910D0290910E020E9452B8C7
:104DE0005BEFC52E56E0D52E7B018C0124EF36E01B
:104DF00040EF56E06CEE76E088EE96E00E94794B4C
:104E00008091E8069091E906A091EA06B091EB0640
:104E100080931B0790931C07A0931D07B0931E0758
:104E20008091EC069091ED06A091EE06B091EF0610
:104E300080931F0790932007A0932107B093220728
:104E40008091F0069091F106A091F206B091F306E0
:104E50008093230790932407A0932507B0932607F8
:104E60008091F4069091F506A091F606B091F706B0
:104E70008093270790932807A0932907B0932A07C8
:104E80001F910F91FF90EF90DF90CF900895609168
:104E9000250270912602882777FD8095982F0E9421
:104EA000EDB820910B0230910C0240910D0250910F
:104EB0000E020E9420BB20E030E040E752E40E9456
:104EC00052B820E030E048EC52E488CFAF92BF9275
:104ED000CF92DF92EF92FF920F931F93CF93DF93C6
:104EE000D82F2091E0063091E1064091E2065091E2
:104EF000E3066091DC067091DD068091DE069091FC
:104F0000DF060E945BBAC62F172F082FF92E60917B
:104F1000250270912602882777FD8095982F0E94A0
:104F2000EDB820910B0230910C0240910D0250918E
:104F30000E020E9420BB20E030E040E752E40E94D5
:104F400052B820E030E048EC52E40E9452B8209180
:104F5000FB062F93DF93FF920F931F93CF935B0179
:104F60006C0162E0E62E01E020E04CED56E068EED8
:104F700076E08BE197E00E944C438091E8069091A7
:104F8000E906A091EA06B091EB0680931B07909387
:104F90001C07A0931D07B0931E078091EC0690910B
:104FA000ED06A091EE06B091EF0680931F07909357
:104FB0002007A0932107B09322078091F0069091DB
:104FC000F106A091F206B091F30680932307909327
:104FD0002407A0932507B09326078091F4069091AB
:104FE000F506A091F606B091F706809327079093F7
:104FF0002807A0932907B0932A070E942BB160933A
:1050000033057093340580933505909336050F90E2
:105010000F900F900F900F900F90DF91CF911F91F5
:105020000F91FF90EF90DF90CF90BF90AF900895D9
:10503000F8940E94D172139A10920007739A1092FA
:105040000107899A10920207439A60E08CE00E945F
:1050500003B3EEE2FBE08491882341F09091C0001D
:1050600095FFFCCF8093C6003196F5CFE0E0F6E0E7
:105070008491882341F09091C00095FFFCCF8093EC
:10508000C6003196F5CF8091C00085FFFCCF8AE045
:105090008093C60087EF95E00E94128DFFCF2F927C
:1050A0003F924F925F926F927F928F929F92AF92B8
:1050B000BF92CF92DF92EF92FF920F931F93CF9305
:1050C000DF93CDB7DEB76E970FB6F894DEBF0FBE95
:1050D000CDBFA0E69A2E04E010E0B1EBEB2EB8E0D5
:1050E000FB2E8AE0882E97E2C92E99E0D92E7724EC
:1050F000739480911F059091200520912105309196
:105100002205821B930B8F779927892B39F0809189
:105110003D0590913E0504970CF448C080913307FB
:10512000882309F48FC380913A0590913B05892B20
:1051300009F088C380913D0590913E05892B11F4BB
:1051400010922305E8EE2E2EE3E03E2E412C512C4A
:10515000FCE3CF2ED12CE12CF12C8E010F5F1F4FE1
:1051600070E6672E772473944091B4095091B50985
:105170006091B6097091B7098091AC099091AD0921
:10518000A091AE09B091AF09481759076A077B078C
:1051900008F058C380913D0590913E0504970CF0AE
:1051A00051C38091230581114DC32DC28EE994E036
:1051B0000E940A1F80933C0520913A0530913B05DF
:1051C0008A3061F08D3051F08A3321F490913905A5
:1051D000992321F02F3531050CF437C12115310504
:1051E00009F451C180913F0590914005989E50016E
:1051F000999EB00C1124F501E20FF31FE95BFA4F01
:1052000010822091390521111BC1FC01ED5BFA4F81
:1052100010829501295B3A4F19016EE470E0C901D3
:105220000E949EBF0097E9F190933805809337055F
:10523000821993098A0D9B1D4AE050E060E070E0FE
:10524000885B9A4F0E94EBBD6093D0067093D106A5
:105250008093D2069093D3062091CC063091CD0650
:105260004091CE065091CF062F5F3F4F4F4F5F4F7B
:10527000A0903F05B090400562177307840795071B
:1052800009F404C19A9CC0019B9C900D112460ED0F
:1052900079E0895B9A4F0E9463BF892B09F0F6C0C1
:1052A00085C16AE270E0C1010E949EBF892B09F4AA
:1052B00044C0EEE2FBE08491882341F09091C0006D
:1052C00095FFFCCF8093C6003196F5CFEAE2F9E076
:1052D0008491882341F09091C00095FFFCCF80938A
:1052E000C6003196F5CF4091CC065091CD06609125
:1052F000CE067091CF062AE030E08EE994E00E945D
:10530000C51F8091C00085FFFCCF8AE08093C60056
:1053100010923B0510923A0595C28091D00690916B
:10532000D106A091D206B091D3068093CC0690937B
:10533000CD06A093CE06B093CF0680913F05909105
:105340004005989E5001999EB00C1124C501895BBF
:105350009A4F1C0167E470E00E949EBF009709F419
:105360004BC09093380580933705821993098A0DB5
:105370009B1D60E070E0885B9A4F0E9483BC0E9496
:10538000BAB86430710508F037C0809125058111E5
:105390001AC08091310781112FC0F6018491E7E294
:1053A000F9E0882349F09091C00095FFFCCF8093ED
:1053B000C60031968491F5CF8091C00085FFFCCF67
:1053C0008092C60019C0F7018491E1EBF8E08823D0
:1053D00049F09091C00095FFFCCF8093C6003196B4
:1053E0008491F5CF8091C00085FFFCCF8092C600EC
:1053F00087EA98E00E94038DA0903F05B090400599
:105400009A9CC0019B9C900D112460E073E0895B25
:105410009A4F0E94A9BF892B09F40ADEC5010196A3
:10542000B8010E9409BC9093400580933F0580918C
:105430003D0590913E05019690933E0580933D0574
:1054400010923B0510923A0554CE8B3311F47092B2
:1054500039059091390591114CCE40913F055091FD
:105460004005B9016F5F7F4F70933B0560933A052C
:10547000949EF001959EF00D1124E20FF31FE95B5D
:10548000FA4F808336CE10923905DCC19A9C100108
:105490009B9C300C1124C101895B9A4F5C016AE22C
:1054A00070E00E949EBF009789F5EEE2FBE08491D8
:1054B000882341F09091C00095FFFCCF8093C600F7
:1054C0003196F5CFE4E5F9E08491882341F090919D
:1054D000C00095FFFCCF8093C6003196F5CF409178
:1054E000CC065091CD066091CE067091CF062AE091
:1054F00030E08EE994E00E94C51F8091C00085FFD6
:10550000FCCF8AE08093C600BADA02CF20E0612C9B
:10551000F101E20FF11DE95BFA4F30813A3219F0E7
:105520002F5F6326F5CF90933805809337058A194E
:105530009B09820D931D60E070E0885B9A4F0E948A
:1055400083BC0E94BAB8262D30E02617370709F42D
:10555000E4CEEEE2FBE08491882341F09091C0001C
:1055600095FFFCCF8093C6003196F5CFEEE7F9E0CA
:105570008491882341F09091C00095FFFCCF8093E7
:10558000C6003196F5CF4091CC065091CD06609182
:10559000CE067091CF062AE030E08EE994E00E94BA
:1055A000C51F8091C00085FFFCCFABCFEEE2FBE0D2
:1055B0008491882341F09091C00095FFFCCF8093A7
:1055C000C6003196F5CFEDE9F9E08491882341F0EA
:1055D0009091C00095FFFCCF8093C6003196F5CF27
:1055E0004091CC065091CD066091CE067091CF06C9
:1055F0002AE030E08EE994E00E94C51F8091C0004F
:1056000085FFFCCF7ECF8091070990910809A0917A
:105610000909B0910A098093B4099093B509A09340
:10562000B609B093B7098FEF98E00E94195B482F35
:1056300080933C058A30B9F04D30A9F0433229F40B
:1056400020913905211103C00EC04A33C9F32091BE
:105650003A0530913B052F3531052CF48F3FFFEF94
:105660009F0709F0D1C04091B4095091B5096091EC
:10567000B6097091B7098091AC099091AD09A091DC
:10568000AE09B091AF09481759076A077B0708F4BC
:1056900081C0E4E9F8E08491882341F09091C00052
:1056A00095FFFCCF8093C6003196F5CF8091C00066
:1056B00085FFFCCFFAE0F093C6000E942BB1609307
:1056C0002705709328058093290590932A058090DB
:1056D0002B0590902C05A0902D05B0902E056819F3
:1056E00079098A099B09A20191010E941CBC490108
:1056F0005A01CA01B901A70196010E941CBCCA0146
:10570000B901A70196010E941CBC7F936F93C5014C
:10571000B40120E13EE040E050E00E941CBC3F9319
:105720002F93A0E8B8E0BF93AF931F930F930E940D
:10573000D6BFE8E2FBE084910FB6F894DEBF0FBE5F
:10574000CDBF882349F09091C00095FFFCCF809396
:10575000C60031968491F5CFF8018191882339F004
:105760009091C00095FFFCCF8093C600F6CF80914A
:10577000C00085FFFCCF3AE03093C600C8010E940C
:10578000F48C81E397E00E94021A61E081E397E0E4
:105790000E94641780913C05833211F470922305B6
:1057A00020913A0530913B052115310509F46BCE66
:1057B00080913F0590914005689EF001699EF00D33
:1057C0001124E20FF31FE95BFA4F1082FC01ED5B3D
:1057D000FA4F708220913D0530913E052F5F3F4F7B
:1057E00030933E0520933D05019664E070E00E94F1
:1057F00009BC9093400580933F05109239051092A3
:105800003B0510923A05B0CC4B3311F47092390538
:10581000409139054111A4CC40913F05509140057C
:10582000B9016F5F7F4F70933B0560933A05649EAB
:10583000F001659EF00D1124E20FF31FE95BFA4FB2
:10584000808392CC6E960FB6F894DEBF0FBECDBFAC
:10585000DF91CF911F910F91FF90EF90DF90CF904C
:10586000BF90AF909F908F907F906F905F904F9080
:105870003F902F900895CF92DF92EF92FF920F9377
:105880001F9380913D0590913E0503970CF407DC32
:105890000E942BB100912F05109130052091310508
:1058A00030913205C0903305D0903405E090350535
:1058B000F09036056C197D098E099F0906171707A8
:1058C0002807390728F4012B022B032B09F0B0DB42
:1058D0008091070290910802A0910902B0910A02FA
:1058E000892B8A2B8B2B09F10E942BB10091330558
:1058F000109134052091350530913605601B710BF0
:10590000820B930B0091070210910802209109026B
:1059100030910A02061717072807390730F49091CB
:10592000C4098091C309981741F01F910F91FF900E
:10593000EF90DF90CF900C945C4B139A109200077D
:10594000739A10920107899A10920207439AEDCF39
:105950000E94D17280912505811138C081E0809329
:1059600025058091CC069091CD06A091CE06B091F0
:10597000CF068093C8069093C906A093CA06B09339
:10598000CB06EEE2FBE08491882341F09091C000C9
:1059900095FFFCCF8093C6003196F5CFE1E8F5E0A6
:1059A0008491882341F09091C00095FFFCCF8093B3
:1059B000C6003196F5CF8091C00085FFFCCF8AE00C
:1059C0008093C60087E795E00C94038D089580913D
:1059D00025050895CF93DF93EC018091FB0680931A
:1059E000260584E50E94F024811102C080E075C084
:1059F0000E94DC240E94BFB8609326056623B1F3A1
:105A0000E8E2FBE08491882341F09091C00095FF8B
:105A1000FCCF8093C6003196F5CFCD36D105B9F0D5
:105A200054F4C836D105B1F0C936D10509F045C0E6
:105A3000EAE4F3E021C0CA3DD10531F0CD3DD10506
:105A4000E1F5E5E0F3E036C0ECE1F3E029C0E3E3A3
:105A5000F3E01CC0E1E6F3E08191882371F19091BD
:105A6000C00095FFFCCF8093C600F6CF9091C00098
:105A700095FFFCCF8093C60081918111F7CF1DC0A7
:105A80009091C00095FFFCCF8093C6008191811159
:105A9000F7CF13C09091C00095FFFCCF8093C60054
:105AA00081918111F7CF09C09091C00095FFFCCF83
:105AB0008093C60081918111F7CF40E050E0609162
:105AC00026058EE994E00E941F208091C00085FF8A
:105AD000FCCF8AE08093C60081E0DF91CF910895EA
